{
    "contractName": "CutProposal",
    "abi": [
        {
            "inputs": [
                {
                    "internalType": "address",
                    "name": "_proposedContract",
                    "type": "address"
                }
            ],
            "stateMutability": "nonpayable",
            "type": "constructor"
        },
        {
            "anonymous": false,
            "inputs": [
                {
                    "components": [
                        {
                            "internalType": "address",
                            "name": "target",
                            "type": "address"
                        },
                        {
                            "internalType": "enum IDiamondCuttable.FacetCutAction",
                            "name": "action",
                            "type": "uint8"
                        },
                        {
                            "internalType": "bytes4[]",
                            "name": "selectors",
                            "type": "bytes4[]"
                        }
                    ],
                    "indexed": false,
                    "internalType": "struct IDiamondCuttable.FacetCut[]",
                    "name": "facetCuts",
                    "type": "tuple[]"
                },
                {
                    "indexed": false,
                    "internalType": "address",
                    "name": "target",
                    "type": "address"
                },
                {
                    "indexed": false,
                    "internalType": "bytes",
                    "name": "data",
                    "type": "bytes"
                }
            ],
            "name": "DiamondCut",
            "type": "event"
        },
        {
            "inputs": [
                {
                    "components": [
                        {
                            "internalType": "address",
                            "name": "target",
                            "type": "address"
                        },
                        {
                            "internalType": "enum IDiamondCuttable.FacetCutAction",
                            "name": "action",
                            "type": "uint8"
                        },
                        {
                            "internalType": "bytes4[]",
                            "name": "selectors",
                            "type": "bytes4[]"
                        }
                    ],
                    "internalType": "struct IDiamondCuttable.FacetCut[]",
                    "name": "facetCuts",
                    "type": "tuple[]"
                },
                {
                    "internalType": "address",
                    "name": "target",
                    "type": "address"
                },
                {
                    "internalType": "bytes",
                    "name": "data",
                    "type": "bytes"
                }
            ],
            "name": "diamondCut",
            "outputs": [],
            "stateMutability": "nonpayable",
            "type": "function"
        },
        {
            "inputs": [
                {
                    "internalType": "uint256",
                    "name": "_proposalId",
                    "type": "uint256"
                }
            ],
            "name": "execute",
            "outputs": [],
            "stateMutability": "nonpayable",
            "type": "function"
        }
    ],
    "bytecode": "608060405234801561001057600080fd5b5060405161130d38038061130d83398101604081905261002f91610054565b600080546001600160a01b0319166001600160a01b0392909216919091179055610084565b60006020828403121561006657600080fd5b81516001600160a01b038116811461007d57600080fd5b9392505050565b61127a806100936000396000f3fe608060405234801561001057600080fd5b50600436106100365760003560e01c80631f931c1c1461003b578063fe0d94c114610050575b600080fd5b61004e610049366004610d55565b610063565b005b61004e61005e366004610e07565b61013e565b7f8a22373512790c48b83a1fe2efdd2888d4a917bcdc24d0adf63e60f671680460546001600160a01b031633146100e15760405162461bcd60e51b815260206004820152601d60248201527f4f776e61626c653a2073656e646572206d757374206265206f776e657200000060448201526064015b60405180910390fd5b6101376100ee8587610eb4565b8484848080601f01602080910402602001604051908101604052809392919081815260200183838082843760009201919091525061012f92506102db915050565b9291906102ff565b5050505050565b60408051600280825260608201835260009260208301908036833701905050905063561f5f8960e01b8160008151811061017a5761017a610ff8565b6001600160e01b03199092166020928302919091019091015280516243a91b60e51b90829060019081106101b0576101b0610ff8565b6001600160e01b03199290921660209283029190910190910152604080516001808252818301909252600091816020015b604080516060808201835260008083526020830152918101919091528152602001906001900390816101e157505060408051606081018252600080546001600160a01b031682526020820181905291810185905282519293509183919061024a5761024a610ff8565b60209081029190910101526040516307e4c70760e21b81523090631f931c1c9061027b9084906000906004016110f7565b600060405180830381600087803b15801561029557600080fd5b505af11580156102a9573d6000803e3d6000fd5b505050506102d660405180604001604052806008815260200167195e1958dd5d195960c21b8152506104db565b505050565b7f177481ac65e4292921c69f62d1cc7f57541261e5d61c8175cf4e36a01c9bfc9390565b600184015461ffff81169081906000906007161561032f5750600381901c60009081526002870160205260409020545b60005b865181101561044f57600087828151811061034f5761034f610ff8565b602002602001015190506000816020015190506000826040015151116103c35760405162461bcd60e51b815260206004820152602360248201527f4469616d6f6e64426173653a206e6f2073656c6563746f7273207370656369666044820152621a595960ea1b60648201526084016100d8565b60008160028111156103d7576103d761100e565b036103f2576103e88a868685610521565b9095509350610445565b60018160028111156104065761040661100e565b0361041a576104158a836106d4565b610445565b600281600281111561042e5761042e61100e565b036104455761043f8a8686856108c7565b90955093505b5050600101610332565b5082821461046b5760018701805461ffff191661ffff84161790555b600782161561048d57600382901c600090815260028801602052604090208190555b7f8faa70878671ccd212d20771b795c50af8fd3ff6cf27f4bde57e5d4de0aeb6738686866040516104c09392919061118e565b60405180910390a16104d28585610b5f565b50505050505050565b61051e816040516024016104ef91906111cc565b60408051601f198184030181529190526020810180516001600160e01b031663104c13eb60e21b179052610ccf565b50565b805160009081906001600160a01b0316301480610548575082516001600160a01b03163b15155b6105a05760405162461bcd60e51b815260206004820152602360248201527f4469616d6f6e64426173653a204144442074617267657420686173206e6f20636044820152626f646560e81b60648201526084016100d8565b60005b8360400151518110156106c7576000846040015182815181106105c8576105c8610ff8565b6020908102919091018101516001600160e01b031981166000908152918a9052604090912054909150606081901c1561064f5760405162461bcd60e51b815260206004820152602360248201527f4469616d6f6e64426173653a2073656c6563746f7220616c726561647920616460448201526219195960ea1b60648201526084016100d8565b85516001600160e01b0319838116600081815260208d90526040902060609390931b6001600160601b0319168b1790925560058a901b60e090811692831c91831c199990991617978190036106b857600389901c600090815260028b0160205260408120989098555b505050600195860195016105a3565b5093959294509192505050565b80516001600160a01b03163b61073c5760405162461bcd60e51b815260206004820152602760248201527f4469616d6f6e64426173653a205245504c4143452074617267657420686173206044820152666e6f20636f646560c81b60648201526084016100d8565b60005b8160400151518110156102d65760008260400151828151811061076457610764610ff8565b6020908102919091018101516001600160e01b03198116600090815291869052604090912054909150606081901c806107df5760405162461bcd60e51b815260206004820152601f60248201527f4469616d6f6e64426173653a2073656c6563746f72206e6f7420666f756e640060448201526064016100d8565b306001600160a01b038216036108075760405162461bcd60e51b81526004016100d8906111e6565b84600001516001600160a01b0316816001600160a01b03160361087d5760405162461bcd60e51b815260206004820152602860248201527f4469616d6f6e64426173653a205245504c41434520746172676574206973206960448201526719195b9d1a58d85b60c21b60648201526084016100d8565b5083516001600160e01b031992909216600090815260208690526040902060609290921b6001600160601b0319166bffffffffffffffffffffffff9190911617905560010161073f565b805160009081906001600160a01b03161561093c5760405162461bcd60e51b815260206004820152602f60248201527f4469616d6f6e64426173653a2052454d4f564520746172676574206d7573742060448201526e6265207a65726f206164647265737360881b60648201526084016100d8565b600385901c6007861660005b856040015151811015610b4b5760008660400151828151811061096d5761096d610ff8565b6020908102919091018101516001600160e01b031981166000908152918c9052604090912054909150606081901c6109e75760405162461bcd60e51b815260206004820152601f60248201527f4469616d6f6e64426173653a2073656c6563746f72206e6f7420666f756e640060448201526064016100d8565b30606082901c03610a0a5760405162461bcd60e51b81526004016100d8906111e6565b6000899003610a3657600019909401600081815260028c01602052604090205498509360079350610a3e565b600019909301925b600584901b89901b6000806001600160e01b031980841690861614610a95576001600160e01b03198316600090815260208f90526040902080546001600160601b0319166bffffffffffffffffffffffff86161790555b50506001600160e01b03198316600090815260208d90526040812055611fff600383901c1660e0600584901b16878214610af857600082815260028f016020526040902080546001600160e01b031980841c19909116908516831c179055610b1c565b80836001600160e01b031916901c816001600160e01b031960001b901c198d16179b505b86600003610b3a57600088815260028f01602052604081208190559b505b505060019093019250610948915050565b5060039190911b1796939550929350505050565b8051156001600160a01b0383161514610bd15760405162461bcd60e51b815260206004820152602e60248201527f4469616d6f6e64426173653a20696e76616c696420696e697469616c697a617460448201526d696f6e20706172616d657465727360901b60648201526084016100d8565b6001600160a01b03821615610ccb576001600160a01b0382163014610c5e576001600160a01b0382163b610c5e5760405162461bcd60e51b815260206004820152602e60248201527f4469616d6f6e64426173653a20696e697469616c697a6174696f6e207461726760448201526d657420686173206e6f20636f646560901b60648201526084016100d8565b6000826001600160a01b031682604051610c789190611228565b600060405180830381855af49150503d8060008114610cb3576040519150601f19603f3d011682016040523d82523d6000602084013e610cb8565b606091505b50509050806102d6573d6000803e3d6000fd5b5050565b80516a636f6e736f6c652e6c6f67602083016000808483855afa5050505050565b80356001600160a01b0381168114610d0757600080fd5b919050565b60008083601f840112610d1e57600080fd5b50813567ffffffffffffffff811115610d3657600080fd5b602083019150836020828501011115610d4e57600080fd5b9250929050565b600080600080600060608688031215610d6d57600080fd5b853567ffffffffffffffff80821115610d8557600080fd5b818801915088601f830112610d9957600080fd5b813581811115610da857600080fd5b8960208260051b8501011115610dbd57600080fd5b60208301975080965050610dd360208901610cf0565b94506040880135915080821115610de957600080fd5b50610df688828901610d0c565b969995985093965092949392505050565b600060208284031215610e1957600080fd5b5035919050565b634e487b7160e01b600052604160045260246000fd5b6040516060810167ffffffffffffffff81118282101715610e5957610e59610e20565b60405290565b604051601f8201601f1916810167ffffffffffffffff81118282101715610e8857610e88610e20565b604052919050565b600067ffffffffffffffff821115610eaa57610eaa610e20565b5060051b60200190565b6000610ec7610ec284610e90565b610e5f565b83815260208082019190600586811b860136811115610ee557600080fd5b865b81811015610feb57803567ffffffffffffffff80821115610f085760008081fd5b818a01915060608236031215610f1e5760008081fd5b610f26610e36565b610f2f83610cf0565b81528683013560038110610f435760008081fd5b8188015260408381013583811115610f5b5760008081fd5b939093019236601f850112610f7257600092508283fd5b83359250610f82610ec284610e90565b83815292871b84018801928881019036851115610f9f5760008081fd5b948901945b84861015610fd45785356001600160e01b031981168114610fc55760008081fd5b82529489019490890190610fa4565b918301919091525088525050948301948301610ee7565b5092979650505050505050565b634e487b7160e01b600052603260045260246000fd5b634e487b7160e01b600052602160045260246000fd5b600081518084526020808501808196508360051b8101915082860160005b858110156110ea578284038952815180516001600160a01b0316855285810151606090818701906003811061108757634e487b7160e01b600052602160045260246000fd5b87890152604092830151928701919091528151908190529086019060808601906000905b808210156110d55783516001600160e01b03191683529288019291880191600191909101906110ab565b50509986019994505090840190600101611042565b5091979650505050505050565b60608152600061110a6060830185611024565b60018060a01b0384166020840152828103604084015260008152602081019150509392505050565b60005b8381101561114d578181015183820152602001611135565b8381111561115c576000848401525b50505050565b6000815180845261117a816020860160208601611132565b601f01601f19169290920160200192915050565b6060815260006111a16060830186611024565b6001600160a01b038516602084015282810360408401526111c28185611162565b9695505050505050565b6020815260006111df6020830184611162565b9392505050565b60208082526022908201527f4469616d6f6e64426173653a2073656c6563746f7220697320696d6d757461626040820152616c6560f01b606082015260800190565b6000825161123a818460208701611132565b919091019291505056fea26469706673582212207de4dba59427efe3e5357f2dca73c23fe25fb6490209f81f59f9438b0f0871cd64736f6c634300080d0033",
    "sourcePath": "/Users/thomasvanslooten/Projects/governance-token-diamond/contracts/upgrades/proposals/CutProposal.sol",
    "compiler": {
        "name": "solc",
        "version": "0.8.13+commit.abaa5c0e"
    },
    "functionHashes": {
        "diamondCut((address,uint8,bytes4[])[],address,bytes)": "1f931c1c",
        "execute(uint256)": "fe0d94c1"
    },
    "gasEstimates": {
        "creation": {
            "codeDepositCost": "946000",
            "executionCost": "infinite",
            "totalCost": "infinite"
        },
        "external": {
            "diamondCut((address,uint8,bytes4[])[],address,bytes)": "infinite",
            "execute(uint256)": "infinite"
        }
    }
}